:100000000C9434000C9451000C9451000C94510049
:100010000C9451000C9451000C9451000C9451001C
:100020000C9451000C9451000C9451000C9451000C
:100030000C9451000C9451000C9451000C945100FC
:100040000C9461000C9451000C9451000C945100DC
:100050000C9451000C9451000C9451000C945100DC
:100060000C9451000C94510011241FBECFEFD8E026
:10007000DEBFCDBF11E0A0E0B1E0E2E2F8E002C0F7
:1000800005900D92A43AB107D9F711E0A4EAB1E0C6
:1000900001C01D92A43BB107E1F70E94B4030C9488
:1000A0000F040C94000080937C0080EC80937A0015
:1000B00080917A0086FDFCCF809178009091790044
:1000C00008951F920F920FB60F9211242F933F9312
:1000D0004F935F936F937F938F939F93AF93BF9350
:1000E000EF93FF93F89483E00E9453009093A7014D
:1000F0008093A6018091AA019091AB012091A60165
:100100003091A7010A978217930798F48091AA016A
:100110009091AB012091A6013091A7010A96281772
:10012000390738F48EE061E00E94B70280E091E088
:100130001EC08091AC019091AD012091A60130913B
:10014000A7010A9782179307D0F48091AC01909190
:10015000AD012091A6013091A7010A962817390711
:1001600070F48CE061E00E94B70283E091E00E94AD
:10017000E0028091A5018F5F8093A5015FC080910F
:10018000AE019091AF012091A6013091A7010A978D
:100190008217930798F48091AE019091AF0120915E
:1001A000A6013091A7010A962817390738F48CE088
:1001B00061E00E94B70288E091E0D9CF8091B00160
:1001C0009091B1012091A6013091A7010A97821761
:1001D000930798F48091B0019091B1012091A6010C
:1001E0003091A7010A962817390738F48BE061E0AF
:1001F0000E94B7028DE091E0BACF8091B201909158
:10020000B3012091A6013091A7010A9782179307A5
:1002100098F48091B2019091B3012091A6013091A0
:10022000A7010A962817390738F48AE061E00E948E
:10023000B70283E191E09BCF0E94C3028091A501A8
:100240007894FF91EF91BF91AF919F918F917F91A2
:100250006F915F914F913F912F910F900FBE0F9033
:100260001F9018958F929F92AF92BF92CF92DF927C
:10027000EF92FF920F931F93CF93DF93CDB7DEB72B
:100280002C970FB6F894DEBF0FBECDBFDE011196DE
:10029000E4E6F1E08CE001900D928150E1F70E94DC
:1002A000C3028AE191E00E94E0028FEF94E3ACE0A8
:1002B00081509040A040E1F700C000006E0108941A
:1002C000C11CD11CEE24FF242AE0A22EB12C33E065
:1002D000832E912C01C058010E94C302E114F10445
:1002E00049F08FE291E00E94E002D6018D919C914D
:1002F000119702C089819A810E94E0028FEF93EDED
:10030000A0E381509040A040E1F700C0000083E0EE
:100310000E9453008C0183E00E945300080F191FB4
:1003200083E00E945300800F911FB4010E94CD030F
:10033000F701EE0FFF1FE855FE4F7183608302C087
:10034000F999FECFF999FCCF85010E5F1F4FF70198
:10035000EE0FFF1FE855FE4F60817181C5010E94BD
:10036000E7030894E11CF11CA2E0B0E0CA0EDB1E1A
:100370000631110509F0AFCF2C960FB6F894DEBF09
:100380000FBECDBFDF91CF911F910F91FF90EF90E6
:10039000DF90CF90BF90AF909F908F9008950F9374
:1003A0001F93CF93DF930E94C30283E00E94530008
:1003B000EC0183E00E945300C80FD91F83E00E9424
:1003C00053008C0F9D1F63E070E00E94CD0370937B
:1003D000A7016093A601F999FECFC0E0D0E08AE0C2
:1003E00090E0F9990DC08C010E5F1F4F0E94E10350
:1003F000FE01EE0FFF1FE855FE4F91838083C80179
:100400002196C630D10569F78091A8019091A90184
:100410002091A6013091A701AC014A5050404217EB
:100420005307B0F42091A6013091A7010A9628172E
:10043000390770F480E791E00E94E0028FEF99E6BF
:10044000A8E181509040A040E1F700C000000FC03B
:1004500080E891E00E94E0028FEF99E6A8E18150E8
:100460009040A040E1F700C000000E9432010E94CD
:10047000C302DF91CF911F910F910895009711F45E
:1004800000C008950197F1F708955F9A00C05F9842
:100490000895CF93662311F05E9A01C05E985D982F
:1004A000209A239A249A259A2D982C982B9828984C
:1004B00087FD2D9AC82F86FD2C9AC5FD2B9AC4FD69
:1004C000289A0E9445022D982C982B982898C3FDB5
:1004D0002D9AC2FD2C9AC1FD2B9AC0FD289A0E942C
:1004E0004502289A2B9A2C9A2D9ACF9108955E98BE
:1004F0005D9A20982398249825985F9A00C01899AF
:1005000002C080E001C080E11B9980621C99806478
:100510001D9980685F9800C05F9A00C0189981603B
:100520001B9982601C9984601D9988605F9808956A
:100530000E94770287FDFCCF88E090E00E943E0297
:100540000E9477020895CF93C82F0E9498028C2FA3
:1005500060E00E944902CF910895CF93C82F0E9476
:1005600098028C2F61E00E944902CF910895662382
:1005700011F4805801C080540E94A30208950E9483
:10058000980290E0089581E00E94A302089582E01D
:100590000E94A3020895CF93C82F0E949802CA30E8
:1005A00049F4803410F480E401C080E080580E9457
:1005B000A30204C08C2F61E00E944902CF910895EC
:1005C000CF93DF93EC0102C00E94CB028991882374
:1005D000D9F7DF91CF910895CF93DF93EC0102C05B
:1005E0000E94CB02FE01219684918823C9F7DF91F6
:1005F000CF910895CF93C82F569A559A579A209A1B
:10060000239A249A259A80E09AEF0E943E022B9A20
:10061000289A0E94450280E09EE40E943E020E94C9
:10062000450280E091E00E943E020E94450280E087
:1006300091E00E943E0228980E94450280E091E0ED
:100640000E943E0288E20E94A30288E00E94A30268
:100650000E94C30286E00E94A3028C2F0E94A30284
:10066000CF9108951092B90088E48093B80008955E
:1006700094EA9093BC009091BC0097FFFCCF9091BE
:10068000B900987F983011F0903199F48093BB00B5
:1006900084E88093BC008091BC0087FFFCCF9091E0
:1006A000B900987F983139F081E0903429F480E0E6
:1006B000089581E0089580E0089544EA34E824E94B
:1006C0004093BC009091BC0097FFFCCF9091B90083
:1006D000987F983011F0903199F78093BB00309358
:1006E000BC009091BC0097FFFCCF9091B900987F1F
:1006F000903211F0983539F42093BC009091BC00F1
:1007000094FDFCCFDDCF08950E943803089584E95D
:100710008093BC008091BC0084FDFCCF0895809341
:10072000BB0084E88093BC008091BC0087FFFCCFB5
:100730009091B900987F81E0983209F480E00895A3
:1007400084EC8093BC008091BC0087FFFCCF80913B
:10075000BB00089584E88093BC008091BC0087FFB3
:10076000FCCF8091BB0008958CE00E94FA0282E9E0
:1007700091E00E94E0028FEF99E6A8E1815090405D
:10078000A040E1F700C000000E94CF0181E080930B
:100790006E0085E085BD7894FFCFAA1BBB1B51E19D
:1007A00007C0AA1FBB1FA617B70710F0A61BB70BE1
:1007B000881F991F5A95A9F780959095BC01CD0186
:1007C0000895A8E1B0E042E050E00C94EF030196F8
:1007D000272F0E94FE030C94FD03DC01CB01FC01DA
:1007E000F999FECF06C0F2BDE1BDF89A319600B48A
:1007F0000D9241505040B8F70895262FF999FECF39
:1008000092BD81BDF89A019700B4021639F01FBA63
:1008100020BD0FB6F894FA9AF99A0FBE0895F8948D
:02082000FFCF08
:10082200555000444F574E004C45465400524947DC
:10083200485400425554544F4E00537461727469C7
:100842006E670A43616C6962726174696F6E00500F
:100852007265737320004465707265737320616CF6
:100862006C0A427574746F6E7300557000446F7732
:100872006E004C6566740052696768740042757454
:10088200746F6E0036014A014D01520157015D013C
:1008920043616C696272617465642E2E2E210A00B6
:1008A2004E656564730A43616C6962726174696F53
:1008B2006E0054657374696E6720446576426F6199
:0408C200726400005C
:00000001FF
